{
  "contractName": "Committer",
  "abi": [
    {
      "constant": true,
      "inputs": [
        {
          "name": "",
          "type": "bytes32"
        }
      ],
      "name": "filter",
      "outputs": [
        {
          "name": "",
          "type": "bool"
        }
      ],
      "payable": false,
      "stateMutability": "view",
      "type": "function",
      "signature": "0x37896d96"
    },
    {
      "constant": true,
      "inputs": [],
      "name": "state",
      "outputs": [
        {
          "name": "",
          "type": "uint8"
        }
      ],
      "payable": false,
      "stateMutability": "view",
      "type": "function",
      "signature": "0xc19d93fb"
    },
    {
      "constant": true,
      "inputs": [
        {
          "name": "",
          "type": "address"
        }
      ],
      "name": "commitments",
      "outputs": [
        {
          "name": "hashMsg",
          "type": "bytes32"
        },
        {
          "name": "hashSalt",
          "type": "bytes32"
        }
      ],
      "payable": false,
      "stateMutability": "view",
      "type": "function",
      "signature": "0xe8fcf723"
    },
    {
      "inputs": [],
      "payable": false,
      "stateMutability": "nonpayable",
      "type": "constructor",
      "signature": "constructor"
    },
    {
      "constant": false,
      "inputs": [
        {
          "name": "_hashMsg",
          "type": "bytes32"
        },
        {
          "name": "_hashSalt",
          "type": "bytes32"
        }
      ],
      "name": "commit",
      "outputs": [],
      "payable": false,
      "stateMutability": "nonpayable",
      "type": "function",
      "signature": "0xe3ce094d"
    },
    {
      "constant": true,
      "inputs": [
        {
          "name": "_msg",
          "type": "bytes"
        },
        {
          "name": "_salt",
          "type": "bytes"
        }
      ],
      "name": "reveal",
      "outputs": [
        {
          "name": "",
          "type": "bool"
        }
      ],
      "payable": false,
      "stateMutability": "view",
      "type": "function",
      "signature": "0xd6df7642"
    }
  ],
  "bytecode": "0x608060405234801561001057600080fd5b50610849806100206000396000f3fe608060405234801561001057600080fd5b5060043610610074576000357c01000000000000000000000000000000000000000000000000000000009004806337896d9614610079578063c19d93fb146100bf578063d6df7642146100eb578063e3ce094d14610255578063e8fcf7231461028d575b600080fd5b6100a56004803603602081101561008f57600080fd5b81019080803590602001909291905050506102ec565b604051808215151515815260200191505060405180910390f35b6100c761030c565b604051808260028111156100d757fe5b60ff16815260200191505060405180910390f35b61023b6004803603604081101561010157600080fd5b810190808035906020019064010000000081111561011e57600080fd5b82018360208201111561013057600080fd5b8035906020019184600183028401116401000000008311171561015257600080fd5b91908080601f016020809104026020016040519081016040528093929190818152602001838380828437600081840152601f19601f820116905080830192505050505050509192919290803590602001906401000000008111156101b557600080fd5b8201836020820111156101c757600080fd5b803590602001918460018302840111640100000000831117156101e957600080fd5b91908080601f016020809104026020016040519081016040528093929190818152602001838380828437600081840152601f19601f82011690508083019250505050505050919291929050505061031e565b604051808215151515815260200191505060405180910390f35b61028b6004803603604081101561026b57600080fd5b810190808035906020019092919080359060200190929190505050610530565b005b6102cf600480360360208110156102a357600080fd5b81019080803573ffffffffffffffffffffffffffffffffffffffff1690602001909291905050506107f0565b604051808381526020018281526020019250505060405180910390f35b60026020528060005260406000206000915054906101000a900460ff1681565b6000809054906101000a900460ff1681565b600080600102600160003373ffffffffffffffffffffffffffffffffffffffff1673ffffffffffffffffffffffffffffffffffffffff1681526020019081526020016000206000015414156103db576040517f08c379a000000000000000000000000000000000000000000000000000000000815260040180806020018281038252600e8152602001807f6e6f74206120636f6d6d6974657200000000000000000000000000000000000081525060200191505060405180910390fd5b60016000809054906101000a900460ff1660028111156103f757fe5b81600281111561040357fe5b14610476576040517f08c379a00000000000000000000000000000000000000000000000000000000081526004018080602001828103825260188152602001807f6e6f7420696e2074686520636f7272656374207374617465000000000000000081525060200191505060405180910390fd5b600160003373ffffffffffffffffffffffffffffffffffffffff1673ffffffffffffffffffffffffffffffffffffffff1681526020019081526020016000206001015483805190602001201480156105165750600160003373ffffffffffffffffffffffffffffffffffffffff1673ffffffffffffffffffffffffffffffffffffffff168152602001908152602001600020600001548480519060200120145b156105245760019150610529565b600091505b5092915050565b60008060009054906101000a900460ff16600281111561054c57fe5b81600281111561055857fe5b146105cb576040517f08c379a00000000000000000000000000000000000000000000000000000000081526004018080602001828103825260188152602001807f6e6f7420696e2074686520636f7272656374207374617465000000000000000081525060200191505060405180910390fd5b6000600102600160003373ffffffffffffffffffffffffffffffffffffffff1673ffffffffffffffffffffffffffffffffffffffff1681526020019081526020016000206000015414610686576040517f08c379a000000000000000000000000000000000000000000000000000000000815260040180806020018281038252601c8152602001807f63616e206f6e6c79206d616b65206f6e6520636f6d6d69746d656e740000000081525060200191505060405180910390fd5b600083836040516020018083815260200182815260200192505050604051602081830303815290604052805190602001209050600015156002600083815260200190815260200160002060009054906101000a900460ff16151514610753576040517f08c379a00000000000000000000000000000000000000000000000000000000081526004018080602001828103825260188152602001807f43616e7420636f6d6d69742074686973206d657373616765000000000000000081525060200191505060405180910390fd5b60016002600083815260200190815260200160002060006101000a81548160ff021916908315150217905550604051806040016040528085815260200184815250600160003373ffffffffffffffffffffffffffffffffffffffff1673ffffffffffffffffffffffffffffffffffffffff168152602001908152602001600020600082015181600001556020820151816001015590505050505050565b6001602052806000526040600020600091509050806000015490806001015490508256fea265627a7a723058209f07898f8f1c5e2ef6fabc94c01917b76de6f358ca615dc011c7ca9cbc02629764736f6c63430005090032",
  "source": "pragma solidity ^0.5.9;\n\n\ncontract Committer {\n    //States that this contract can have\n    enum States {Commit, Reveal, Stopped}\n\n\n    // Hold commitment information as two keccak hashs\n    struct Commitment {\n        bytes32 hashMsg;\n        bytes32 hashSalt;\n    }\n\n\n    States public state;\n    mapping(address => Commitment) public commitments;\n    mapping(bytes32 => bool) public filter;\n\n\n    constructor() public {\n    }\n\n    //Save commiment from sender. Can only submit one commitment.\n    //A message and salt must be unique.\n    function commit(\n        bytes32 _hashMsg,\n        bytes32 _hashSalt\n    )\n    public\n    onlyInState(States.Commit)\n    {\n\n        require(commitments[msg.sender].hashMsg == 0x0, 'can only make one commitment');\n        bytes32 _test = keccak256(abi.encodePacked(_hashMsg, _hashSalt));\n        require(filter[_test] == false, 'Cant commit this message');\n\n        filter[_test] = true;\n        commitments[msg.sender] = Commitment(_hashMsg, _hashSalt);\n    }\n\n\n    function reveal(\n        bytes memory _msg,\n        bytes memory _salt\n    )\n    public\n    view\n    onlyCommiters\n    onlyInState(States.Reveal)\n    returns(bool)\n    {\n        if(keccak256(_salt) == commitments[msg.sender].hashSalt &&\n           keccak256(_msg) == commitments[msg.sender].hashMsg\n          )\n        {\n            return true;\n        }\n\n        return false;\n    }\n\n\n    modifier onlyInState(States _state) {\n\n        require(_state == state, 'not in the correct state');\n        _;\n    }\n\n\n    modifier onlyCommiters {\n\n        require(commitments[msg.sender].hashMsg != 0x0, 'not a commiter');\n        _;\n    }\n}\n",
  "sourcePath": "/Users/logic/Documents/GitHub/CommitRevealer/contracts/Committer.sol",
  "compiler": {
    "name": "solc",
    "version": "0.5.9+commit.e560f70d.Emscripten.clang"
  },
  "schemaVersion": "3.0.5",
  "updatedAt": "2019-06-19T23:56:00.114Z",
  "devdoc": {
    "methods": {}
  },
  "userdoc": {
    "methods": {}
  }
}